:0300000002034CAC
:0C034C00787FE4F6D8FD75811E02039353
:0B04B6003F065B4F666D7D077F6F0007
:100479000617FEFDFBF7EFDF010D1701093B010828
:0A04890038011E00010C01010B00F8
:0B04AB0012049412016612000E80F88B
:10000E00E50A1460351460781470030200E1147070
:10001E000302012124046003020165E50D75F00A57
:10002E00849004B693F511E50D75F00A84E5F0930E
:10003E00F512E50975F00A848030E50EB40119E574
:10004E000D75F00A849004B693F511E50D75F00A5E
:10005E0084E5F093F51280099004C1E493F511F54F
:10006E0012E50975F00A849004B693F513E5097547
:10007E00F00A84E5F093F514E50875F00A848044DF
:10008E00E50D75F00A849004B693F511E50D75F043
:10009E000A84E5F093F512E50EB40116E50975F044
:1000AE000A8493F513E50975F00A84E5F093F514C7
:1000BE0080099004C1E493F513F514E50875F00A70
:1000CE00849004B693F515E50875F00A84E5F0936F
:1000DE00F51622E50EB40119E51E75F00A8490049A
:1000EE00B693F511E51E75F00A84E5F093F51280CE
:1000FE00099004C1E493F511F512E50C75F00A842C
:10010E009004B693F513E50C75F00A84E5F093F5BB
:10011E0014803BE51E75F00A849004B693F511E544
:10012E001E75F00A84E5F093F512E50EB40116E59E
:10013E000C75F00A8493F513E50C75F00A84E5F05E
:10014E0093F51480099004C1E493F513F51490040B
:08015E00C1E493F515F516222A
:10049400C2B6E4F50AF50E758901758C3C758AB00F
:0704A400D2AFD2A9D28C22D5
:03000B0002028F5F
:10028F00C0E0C0F0C083C082C0D075D000C000C035
:10029F0001C002C003C004C005C006C007758C3C76
:1002AF00758AB00510E5107002050F6414450F70C4
:1002BF0007F50FF51012042DE51EB50D12E50CB55F
:1002CF00090DE508C394055006B2B6B2B78004C253
:1002DF00B6C2B7E5097008E5087004B2B08002C273
:1002EF00B0AE0FAF107C007D141203D8ED4C700C24
:1002FF00E50E70047F0180027F008F0E751D007464
:10030F0017251DF8E6F5A07411251DF8E6F5807F79
:10031F00027E0012045B75A0FF051DE51DC3940648
:10032F0040DDD007D006D005D004D003D002D001D5
:0D033F00D000D0D0D082D083D0F0D0E032FA
:1001660020901312045720900A050AE50AB40503E5
:10017600E4F50A3090FDE50A700302027924FE6078
:100186004F14700302020F14700302024524036029
:100196000302027920911712045720910EE50DC330
:1001A60094175004050D8003E4F50D3091FD30924F
:1001B6000302027912045720920EE50DD3940040F3
:1001C60004150D8003750D1730920302027980F82D
:1001D60020911712045720910EE509C3943B500451
:1001E60005098003E4F5093091FD30920302027996
:1001F60012045720920EE509D39400400415098095
:100206000375093B20926C80FB209117120457203E
:10021600910EE51EC394175004051E8003E4F51ED7
:100226003091FD20924D12045720920EE51ED39474
:10023600004004151E8003751E1720923680FB2091
:10024600911712045720910EE50CC3943B500405F8
:100256000C8003E4F50C3091FD2092171204572010
:10026600920EE50CD394004004150C8003750C3BEC
:100276003092FD209312120457209309E4F50AF5F3
:090286000DF509F5083093FD2285
:040457007F0A7E009A
:10045B00D3EF9400EE940040147D6E7C00ED1D7084
:0D046B00011CED4C70F7EF1F70E61E80E3E2
:010478002261
:10042D000508E50820E004D2B18002C2B1E508B4A8
:10043D003C05E4F5080509E509B43C05E4F50905B5
:0A044D000DE50DB41803E4F50D22CF
:100358000204ABE493A3F8E493A34003F68001F20C
:1003680008DFF48029E493A3F85407240CC8C333A6
:10037800C4540F4420C8834004F456800146F6DF75
:10038800E4800B0102040810204080900479E47E88
:10039800019360BCA3FF543F30E509541FFEE4936A
:1003A800A360010ECF54C025E060A840B8E493A331
:1003B800FAE493A3F8E493A3C8C582C8CAC583CA5C
:1003C800F0A3C8C582C8CAC583CADFE9DEE780BE14
:010493000068
:1003D800BC000BBE0029EF8DF084FFADF022E4CC09
:1003E800F875F008EF2FFFEE33FEEC33FCEE9DECD2
:1003F800984005FCEE9DFE0FD5F0E9E4CEFD22ED18
:10040800F8F5F0EE8420D21CFEADF075F008EF2F61
:10041800FFED33FD4007985006D5F0F222C398FD52
:050428000FD5F0EA22EF
:00000001FF
